:020000040800F2
:1000000000000220F93000084131000841310008A9
:100010004131000841310008413100080000000072
:100020000000000000000000000000004131000856
:100030004131000800000000413100084131000852
:1000400041310008413100084131000841310008C8
:1000500041310008413100084131000841310008B8
:1000600041310008413100084131000841310008A8
:100070004131000841310008413100084131000898
:100080004131000841310008413100084131000888
:100090004131000841310008413100084131000878
:1000A0004131000841310008413100084131000868
:1000B0004131000841310008413100084131000858
:1000C0004131000841310008413100084131000848
:1000D0004131000841310008413100084131000838
:1000E0004131000841310008413100084131000828
:1000F0004131000841310008413100084131000818
:100100004131000841310008413100084131000807
:1001100041310008413100084131000891070008D1
:1001200041310008413100084131000841310008E7
:1001300041310008413100084131000841310008D7
:1001400041310008413100084131000841310008C7
:1001500041310008413100084131000841310008B7
:1001600041310008413100084131000841310008A7
:100170004131000841310008413100084131000897
:08018000413100084131000883
:1001880010B5054C237833B9044B13B10448AFF3C9
:1001980000800123237010BD5007002000000000DC
:1001A800AC350008084B10B51BB108480849AFF337
:1001B80000800848036803B910BD074B002BFBD02B
:1001C800BDE81040184700BF00000000AC3500082B
:1001D800540700204C07002000000000154B002B9E
:1001E80008BF134B9D46A3F5803A00218B460F4666
:1001F8001348144A121A02F0D9FF0F4B002B00D0F3
:1002080098470E4B002B00D098470020002104008F
:100218000D000D48002802D00C4803F089F802F0C0
:100228009DFF2000290002F0D9FE02F087FF00BFE1
:1002380000000800000000000000000000000000AE
:1002480050070020680A00203933000845330008A9
:100258002DE9F04F89B082460DF1FF330DF11F06ED
:10026800002203F8012FB342FBD11E4CDFF8909017
:10027800DFF890801C4FDFF890B025461B49238992
:10028800DA07FCD523891B06FCD4AB89A889C3F3FC
:10029800072283B242EA032321F8023FB942EED192
:1002A8004023B8F80020C9F80030114811495346D6
:1002B80001F0AEFC104A0DF1010332F8021F080AE2
:1002C8005A4503F8010C03F8021BF6D10B4869469E
:1002D80001F0B4FB0DF1FF33002203F8012FB34204
:1002E800FBD1CBE70038004026090020A6080020F3
:1002F800A808002088070020860700201834000876
:100308006C07002004000020A60700203249334B68
:100318000A6B42F008022DE9F04F0A631A68304E62
:10032800DFF8C8802F4F42F0AA421A605A685A6014
:100338009A6842F07F429A605A6991B022F47042FA
:1003480000255A61B14608AC274801F015FA01F0BA
:100358000BFB0128F8D1684601F0E6FA684600214F
:1003680090F800E0437810AA02EB4102023043EA19
:100378000E230131A04222F8203C89B2F0D1D6F8F0
:1003880004B04FEA4B0C08EB0C0ABC4450466146DB
:10039800224600230CE02AF823E0A0F802E001330B
:1003A800102B02F1020200F1040001F1040108D04F
:1003B800B2F800E0002DEED02CF823E0A1F802E01E
:1003C800EDE70BF12003802B7360BDD90023C9F83A
:1003D800043085F00105B7E700380240000C024000
:1003E8006C0700205C09002020340008A8070020C2
:1003F8004149424BD1F88820414842F47002C1F883
:1004080088201A68002142F001021A6099601A686F
:1004180022F0847222F480321A6058601A6882B01E
:1004280022F480221A60D960009101911A6842F47E
:1004380080321A601A4603E0009BB3F5A06F09D01A
:10044800136803F400330193009B01330093019B6D
:10045800002BF1D0294B1B6813F4003318BF01237C
:100468000193019B012B14D0244A2649936823F455
:1004780000039360C2F88410136843F0806313602C
:1004880013681B01FCD51C4B4FF000629A6002B048
:1004980070471A4B1C491A6C1C4842F080521A6467
:1004A8000A6842F480420A609A689A609A6842F43C
:1004B80000429A609A6842F4A0529A6058601A689A
:1004C80042F080721A601A4611680C4B8901FBD5FC
:1004D8000F4A40F2056111609A6822F003029A609F
:1004E8009A6842F002029A601A46936803F00C0375
:1004F800082BFAD1B8E700BF00ED00E00038024051
:10050800103000248040003000700040085440073C
:10051800003C02401848836803F00C03042B28D0E1
:10052800082B09D0154B144A15499268C2F30312D7
:100538008A5CD3400B6170474368416813F4800FAD
:10054800436818BF0F4801F03F020CBF0B49B0FBCE
:10055800F2F1C3F3881308BFB1FBF2F101FB03F218
:10056800054B5B68C3F3014301335B00B2FBF3F354
:10057800D9E7044BD7E700BF003802400024F40055
:100588000800002000127A0019491A4A0B6C70B44E
:1005980043F0400353264FF47A7584240B64168580
:1005A800D5621480938A9BB243F001039382138827
:1005B8009BB243F001031380114650B1138ADB0745
:1005C800FCD50B8A23F001031B041B0C01380B829A
:1005D800F4D10849064A0B8823F001031B041B0CBD
:1005E8000B80136C23F04003136470BC704700BF8A
:1005F80000380240001800401849194A0B6C70B4C2
:1006080043F040030026542584240B641685D562E4
:100618001480938A9BB243F00103938213889BB2A0
:1006280043F001031380114650B1138ADB07FCD550
:100638000B8A23F001031B041B0C01380B82F4D135
:100648000749064A0B8823F001031B041B0C0B8087
:10065800136C23F04003136470BC704700380240E9
:100668000018004070B40948094B026C53264FF03B
:10067800FF358424002142F0080202641E85DD62F1
:100688001C80998070BC5962704700BF00380240D6
:10069800000C0040054A938A9BB243F00103938201
:1006A80013889BB243F0010313807047000C00408D
:1006B800044A506A138823F001031B041B0C13809F
:1006C800704700BF000C00400E48026C4FF080439A
:1006D80070B442F0010253264FF0FF358424002104
:1006E80002641E85DD621C80998059629A8A92B2E2
:1006F80042F001029A821A8892B242F001021A80EC
:1007080070BC7047003802404FF08043586A704709
:100718004FF080435B6A834205D3084483422CBF71
:10072800002001207047C0431844814294BF002034
:1007380001207047F0B4114C114B226C1148002174
:1007480042F0200253274FF47A76842522641F85CD
:10075800DE621D80998059629A8A92B2012542F020
:1007680001024FF400049A829D8180F83713446097
:100778001A8892B22A431A80F0BC704700380240A7
:100788000014004000E100E0054B1A8AD20705D5A5
:1007980004490A68002001320A601882704700BFC5
:1007A8000014004080070020014B1868704700BF04
:1007B80080070020084B1B68834205D30844834206
:1007C8002CBF002001207047C0431844814294BFC9
:1007D80000200120704700BF80070020114A124BFB
:1007E800116B41F0010110B41163116C0F4C41F40D
:1007F800003111641A6842F0A0021A601A6A42F4C1
:10080800EE421A629A6842F020029A609A6880B2B0
:1008180042F0800242F20C019A602081A1815DF8C9
:10082800044B70470038024000000240004400407A
:1008380003490B88024A5B06FBD580B2908070475B
:10084800004400400D4A70B4441E00F2FF350D26E6
:10085800104614F8011F49B113885B06FCD589B20C
:10086800818023780A2B03D0AC42F2D170BC704748
:1008780013885B06FCD58680F6E700BF004400407D
:100888000FB42DE9F0418CB012AB53F8046B01930F
:100898003278BAB1754C002327461D4631464FF0D1
:1008A8000D08252A19D023885806FCD592B2BA809B
:1008B8000B780A2B0BD00135ADB22B46725D71193E
:1008C800002AEED10CB0BDE8F04104B0704723888F
:1008D8005B06FCD5A7F80480EDE733445A78002A74
:1008E800E9D0623A162A79D8DFE802F05C6E4C78D3
:1008F800287878787878787878787878781F787819
:1009080078780C009B78622B7ED0682B00F08B8067
:10091800772B019B00F09C801A1D013D1B680192FA
:10092800ADB200934FF400604BE0019B1A1D1868AC
:100938000192FFF787FF0135ADB2BCE7019B073392
:1009480023F00703D3E900010833420F21F0784E62
:100958000028019342EACE0371F10002B8BF43F0C8
:100968000043002001F08041009350EA010338D190
:100978004FF4807002AA694600F0D8F802A8FFF781
:1009880061FFD8E79B78622B30D0682B53D0772B48
:10099800019B64D01A1D013D1B680192ADB2009302
:1009A80020200EE09B78622B27D0682B34D0772B41
:1009B800019B47D01A1D013D1B680192ADB20093FF
:1009C80004200135ADB2D5E7019B191D1A780191B4
:1009D80023885B06FCD593B2BB80ACE70023009369
:1009E800A9E7009B43F080430093C1E7019B1A1DD0
:1009F8001B68019200930820E3E7019B1A1D1B68FE
:100A0800019200930120DCE7019B1A1D1B680192EB
:100A180000934FF40070D4E7019B1A1D1B680192E4
:100A280000930220CDE7019B1A1D1B6801920093D9
:100A38004FF48060C5E7019B1A1D1B680192009363
:100A48001020BEE71A1D1B68019200930420B8E726
:100A58001A1D1B68019200934FF40060B1E71A1D3C
:100A68001B68019200932020ABE700BF00440040C0
:100A78000D498B899BB243F4005343F004038B81E7
:100A88000B88094A9B06FBD59088138823F020031E
:100A98001B041B0C1380938923F004031B041B0CF9
:100AA800C0B29381704700BF00440040F0B40D4AC3
:100AB8000D4F00F10A053026914205F8016D08D363
:100AC800312400E01C46891A631C9142DBB2F9D23A
:100AD8002C70A7FB023285424FEAD202ECD1F0BC5F
:100AE800704700BF00CA9A3BCDCCCCCC70B40B8801
:100AF800002509302C46ADB90678302E0FD0D654D3
:100B08000B8801339BB20B8001250134E4B20A2C17
:100B180000F1FF30EFD10021D15470BC7047092C8F
:100B2800F3D1ECE70578D554EAE700BF2DE9F047A3
:100B380084B00023102815461370ADF8023000F079
:100B4800548124D9B0F5007F4FD040F28280B0F5AF
:100B5800806F64D0B0F5006F16D11A4601240B6877
:100B680000E004461B0F092B03F130008ABF37331E
:100B7800A854AB54601C0B6880B21B0109280B6099
:100B88002246EED100232B7204B0BDE8F08702287C
:100B980000F0148117D9042840F024810B6805F16E
:100BA800200030243126002BB4BF167014700B6857
:100BB80001325B0082420B60F5D1002385F82030BA
:100BC80004B0BDE8F0870128DED10B6805F1080004
:100BD800302631241F064CBF147016700B68013282
:100BE8005B0082420B60F5D1CCE71A460B68012402
:100BF800C3F30313092BD8B200F1300386BF373093
:100C0800A854AB54601C0B6880B21B0103280B600E
:100C180040F0D1800023AB7004B0BDE8F0871A46DD
:100C28000B681446C3F30333092BD8B200F1300321
:100C38008ABF37302B55285501320B6892B21B01F9
:100C4800042A14460B60EDD100232B7104B0BDE8D3
:100C5800F087202800F0C980B0F5807F94D191ED0D
:100C6800007AB5EEC07AF1EE10FA00F1FA80F7EEEC
:100C7800007AB4EEE77AF1EE10FA00F1DC8040F386
:100C880001810023B2EE046A67EE867A0133B4EE7E
:100C9800E77AF1EE10FA9BB2F2EE046AF4DCC7EEE2
:100CA800A67A5C1EA4B24FF020080DF10E07794910
:100CB800DFF8ECC1384601AE4FF0300EC7EE277AA8
:100CC8009FED757AFCEEE76A16EE902AF8EE666AF2
:100CD80077EEE67A67EE877AFCEEE77A17EE90AA67
:100CE800914200F801ED0BD84FF0310900E0994628
:100CF800521A09F101038A42DBB2F8D280F8009057
:100D0800ACFB0131B0424FEAD101E9D10DF1020942
:100D1800494630462A46FFF7E9FE5E4ADFF880E199
:100D280039463020524501F8010D0CD84FF0310CEE
:100D380000E09C46C2EB0A0A0CF101039245DBB2C3
:100D4800F7D281F800C0AEFB02328E424FEAD202DF
:100D5800E8D12E2349462A4630468DF80730FFF75A
:100D6800C5FEBDF80220531C65219BB2B8F12D0FBA
:100D7800A954ADF8023058D0464ADFF824E13020B3
:100D8800A24207F8010D08D8312100E01946A41A3B
:100D98004B1C9442DBB2F9D23970AEFB0232BE4230
:100DA8004FEAD202ECD1304649462A46FFF79EFE6A
:100DB80004B0BDE8F0872246044619E70B6805F140
:100DC8001000302631241B044CBF147016700B68B9
:100DD80001325B0082420B60F5D100232B7404B012
:100DE800BDE8F08708287FF4CFAE0A68002A40DB08
:100DF8002849DFF8ACE001AE0DF10E04302791422E
:100E080004F8017D08D8312000E01846521A431C26
:100E18008A42DBB2F9D22070AEFB0131B4424FEA0C
:100E2800D101ECD10DF10209BDE7023205F80380CA
:100E3800ADF80220A0E7DFED197AB4EEE77AF1EE1B
:100E480010FA24D5F0EE676A012467EEA67A013419
:100E5800B4EEE77AF1EE10FAA4B2F6D44FF02D080A
:100E680023E72D220123B1EE477A2A70ADF802302C
:100E7800FDE62D232B700A68012352420A60ADF863
:100E88000230B5E74FF6FF74DFED047A0BE7012473
:100E9800E4E700BF00CA9A3B00007A44CDCCCC3DC1
:100EA800CDCCCCCC274A2849284B70B4156B284C9C
:100EB800284E45F002051563156B45F004051563CA
:100EC800256845F4001525600D6845F080050D601E
:100ED800656A45F4A06565620D6A45F4A0450D6232
:100EE800A56845F40015A5608C6844F080048C6002
:100EF800116C41F480411164116B0002B3FBF0F0F6
:100F08000530A6FB003041F48051C3081163D907AE
:100F18000ED4114BC0F30F1018840F4A138C9BB2D8
:100F280043F4007340F62831138470BC91837047F2
:100F3800013B5B0843F48073A2F500329BB2138433
:100F4800EBE700BF0038024000080240008F423340
:100F580000040240CDCCCCCC003800402DE9F04F45
:100F6800A94DAA48AA4C83B08A4617469846BDF8A8
:100F78003060FFF785FC2A6BA64BA74842F00802B1
:100F88002A63226842F480722260A26842F40072E6
:100F9800A2602A6B42F004022A631A6842F00872BF
:100FA80042F400421A601A6A42F0C0421A625A6A4F
:100FB80042F4C02242F4C0625A62FFF761FC2A6B15
:100FC800964B42F001022A631A6822F440721A60B2
:100FD8001A6842F400721A601A6A42F4C0221A624D
:100FE800942000F02DF9636923F010036361322027
:100FF800FFF7CAFA636943F0100363613220FFF711
:10100800C3FA0120024601A9012400F071FA8448BC
:101018009DF80410FFF734FC224601A902208DF840
:10102800044000F0FBF9AF23224601A904208DF803
:1010380004304FF0800B00F0F1F9224601A9052099
:101048008DF804B000F0EAF92246032301A906202E
:101058008DF8043000F0E2F93023224601A90E2071
:101068004FF000098DF8043000F0D8F9224601A9A4
:101078000F208DF8049000F0D1F9224601A91A201A
:101088008DF8049000F0CAF9224601A91B208DF8BA
:10109800049000F0C3F999234846224601A98DF827
:1010A800043000F0BBF9224601A947208DF804B0AE
:1010B80000F0B4F9224601A932208DF804B000F0FE
:1010C800ADF9224601A932208DF8049000F0A6F966
:1010D8004846224601A98DF8049000F09FF922465F
:1010E8009E2301A902208DF8043000F097F94FF4EF
:1010F800FA70FFF749FA2A6C4A4B4B4842F400420F
:101108002A642A6B04F1CC344FEA0A2AB3FBFAF3B7
:101118000533A4FB03344FEAD40942F480532B630C
:101128004946FFF7ADFB19F0010F67D009F1FF330E
:101138005B0843F480733D4A9BB213843B4A3248B0
:10114800118C3B4B3B4C89B241F40071118491885E
:1011580089B241F0020140F6186591809583026CCE
:101168004FF0060C42F0100240F2EE2E84252021AA
:101178000264A3F828C0C3F82CE01D8099809A8ADD
:1011880092B242F001029A821A8892B242F00102A7
:101198001A80036B002243F4001303632046226085
:1011A8000168244ACB07FBD4234B24484FF0FF3176
:1011B8009960D9609060D760C2F810805660136853
:1011C80043F440331360136843F480631360136877
:1011D80043F480231360136843F4006313601368B7
:1011E80043F400531360136843F04003136013681B
:1011F80043F00103136003B0BDE8F08F0B4BC4F359
:101208000F141C849AE700BF003802404C350008D0
:10121800000C02400008024054350008000002405B
:101228005C350008008F423374350008003C0040EC
:101238000010004088600240006002400C3C004002
:101248000D490E4B0A6B42F0020210B40A631A6889
:101258000B4C42F482221A609A6842F402229A6085
:10126800DA6842F48222DA605A6942F410725A61EA
:1012780020705DF8044B70470038024000040240BB
:101288005C0A002010B50A4C236843F482232360CB
:10129800636943F4107363610520FFF7ADF963696F
:1012A80023F4007363610520BDE81040FFF7A4B97B
:1012B8000004024010B5134C636923F040036361D6
:1012C8000220FFF799F9236843F480432360636998
:1012D80023F4007363610220FFF78EF9636943F01A
:1012E800400363610120FFF787F9636943F40073E2
:1012F80063610520FFF780F9636943F41073636144
:1013080010BD00BF0004024070B5134C236843F4BD
:101318008223064623600825636923F0400363613E
:101328000220FFF769F9636932064CBF43F4007382
:1013380023F4007363610220FFF75EF9636943F0E9
:10134800400363610420FFF757F96B1E760013F022
:10135800FF05F6B2E0D170BD0004024070B5134C31
:10136800236823F44023236008260025636923F0BB
:10137800400363610420FFF73FF9636943F04003CA
:1013880063610220FFF738F923696D009B05EDB210
:101398004FF0020048BF45F00105FFF72DF9731E15
:1013A80013F0FF06E2D1284670BD00BF00040240DA
:1013B80038B5194C636923F0400363610120FFF7D6
:1013C8001BF9636923F400736361236823F44023E2
:1013D80023600420FFF710F9636943F04003636159
:1013E8000220FFF709F923699B050CD5254613242C
:1013F8000120FFF701F92B69013C13F4007FA4B227
:1014080001D0002CF4D10220FFF7F6F8024A136845
:1014180043F48023136038BD0004024012B3F8B5CA
:10142800013A114F044611FA82F64D1EFFF72AFFC2
:101438003878FFF769FFFFF7BBFF2046FFF764FF27
:10144800FFF7B6FF15F8010FFFF75EFFFFF7B0FFD4
:10145800FFF730FF0520FFF797F80134B542E4B2F3
:10146800E4D1F8BD704700BF5C0A002010B50F4CEE
:10147800636923F0400363610120FFF7BDF8236827
:1014880043F480232360636923F4007363610420B9
:10149800FFF7B2F8636943F0400363610420FFF784
:1014A800ABF8636923F04003636110BD0004024098
:1014B80010B50E4C636923F0400363610220FFF707
:1014C8009BF8236843F480232360636943F4007323
:1014D80063610220FFF790F8636943F0400363619A
:1014E8000420BDE81040FFF787B800BF00040240A1
:1014F800F8B5184C15460E460746FFF7C3FE207888
:10150800FFF702FFFFF754FF3846FFF7FDFEFFF72E
:101518004FFFFFF7B7FE207840F00100FFF7F4FE19
:10152800FFF746FFADB1013D16FA85F7741E03E0DB
:10153800FFF79CFFBC420CD0FFF710FF04F8010F27
:10154800A31BAB42F4D1FFF7B3FFFFF7B3FEBC42D6
:10155800F2D1F8BD5C0A002030B4224C224A256B37
:10156800224B234945F002052563156825F47C655F
:101578001560156845F428651560156A45F4AA05CF
:1015880045F4A0451562956845F422559560226B8F
:1015980042F0010222631A6822F040421A601A6877
:1015A80042F080421A609A6842F000429A605A6992
:1015B80042F400425A61636C042243F4805363642A
:1015C8000A800B889BB243F440730B800B889BB254
:1015D800184308800B889BB243F040030B8030BC53
:1015E800704700BF0038024000040240000002407B
:1015F80000300140084A0023938113899807FCD5DD
:10160800054A1389D907FCD503490B89024A1B06E9
:10161800FBD49089C0B2704700300140084A9081DD
:1016280013899807FCD5064A1389D907FCD50449BC
:101638000B89034A1B06FBD493890020704700BF1F
:101648000030014059B138B54D1E10FA85F5441ED9
:1016580014F8010FFFF7E2FFAC42F9D138BD70472B
:1016680059B138B54D1E10FA85F5441EFFF7C2FF73
:1016780004F8010FAC42F9D138BD704770B582B09B
:1016880000F01F0302A843F020030B4C00F8013DB3
:10169800636923F40043154663610E460121FFF791
:1016A800D1FF30462946FFF7CDFF636943F4004375
:1016B800636102B070BD00BF0000024010B5084C65
:1016C8006369024623F400630846636111460522F4
:1016D800FFF7D4FF636943F40063636110BD00BF83
:1016E8000004024010B582B000F01F0302A843F0C6
:1016F80020030B4C00F8013D8DF80610636923F4B4
:10170800004363610121FFF79DFF0DF106000121F0
:10171800FFF798FF636943F40043636102B010BDAB
:101728000000024008B50A4A002318460B2113702E
:10173800FFF7D8FF074A536943F4006353618220D7
:10174800FEF75AFF07203021BDE80840FFF7CABF5F
:10175800610A00200004024010B5064C636923F4B6
:1017680000436361E220FFF759FF636943F40043D4
:10177800636110BD0000024010B501460446052211
:101788000A20FFF77BFF214610200522BDE8104004
:10179800FFF774BF10B584B004AA00F01F0002F868
:1017A800090D0B4C636923F4004310466361012162
:1017B800FFF748FF0DF10F000121FFF751FF6369A3
:1017C80043F4004363619DF80F0004B010BD00BFEF
:1017D8000000024010B52A4B2A4C18701B78002BC9
:1017E8004AD1294B23601020FFF7B6FE274B284922
:1017F8001A6822F440021A601A6842F480021A60D9
:101808005A6822F440025A609A6842F400029A60C8
:101818005A6922F400625A614B6943F400434B61F0
:101828006420FEF7B1FE20680B21FFF747FF052073
:101838000121FFF757FF11202021FFF753FF122046
:101848002021FFF74FFFFFF76DFFFFF785FF1148D6
:10185800FFF716F80024E0B2FFF79CFF2146024686
:1018680001340D48FFF70CF81E2CF4D140F6B830BF
:10187800BDE81040FEF788BE084B2360B3E700BF01
:10188800600A0020640A002018340008000402409E
:101898000000024070350008883500082034000830
:1018A80010B5094B1C78E4B2012C01D0002010BD02
:1018B8000720FFF76FFF10F0300F01D1204610BD51
:1018C800FFF730FF002010BD610A002000B500209E
:1018D80083B0FFF75FFF02A940F0020001F8010D95
:1018E80001220020FFF7CAFE8220FEF785FE03B022
:1018F8005DF804FB10B5064C636923F4004363618B
:10190800E120FFF78BFE636943F40043636110BD78
:1019180000000240034B012200200A211A70FFF741
:10192800E1BE00BF610A002030B50E4C83B0626989
:1019380002AB22F400426121626103F8011D0546F1
:1019480001211846FFF77EFE28462021FFF788FE72
:10195800636943F40043636107204021FFF7C2FE37
:1019680003B030BD0000024008B50720FFF712FFA2
:10197800430601D5012008BD1720FFF70BFF00F033
:10198800010080F0010008BD2DE9F04182B0074652
:10199800FEF70AFF254C05460BE0FFF7FBFE10F0AB
:1019A800300F4FF47A71284636D1FEF703FF00282E
:1019B80035D023781D4E012B4FF00700EDD01C4D7C
:1019C8001C4E6B6923F400636B614FF00108002023
:1019D8000A2184F80080FFF785FEFFF78BFF736903
:1019E80002A8A02223F400437361414600F8012DA8
:1019F800FFF728FE38462021FFF724FE736943F4D9
:101A0800004373616B6943F400636B618220FEF7E6
:101A1800F3FD02B0BDE8F08100233370CFE706483C
:101A2800FEF72EFF02B0BDE8F08100BF610A00207A
:101A380000040240000002409835000870B50C46CA
:101A48000546FEF7B1FE06462846FFF795FE2046F6
:101A5800FFF79AFF0C4D02E0FEF7ACFE88B12C7838
:101A6800E4B2012C4FF0070009D1FFF793FE10F004
:101A7800300F4FF064013046EED0FFF753FE0020E0
:101A880070BD204670BD00BF610A0020DC3500082B
:101A9800000000204C07002050070020680A0020A2
:101AA8002DE9F843544B80461A68544882422DED7C
:101AB800028B1BD052490B68DA0405D40A6842F439
:101AC80080530B60012000E000204E4A4E4911600F
:101AD80013684A4A934208D147490B6030B14848D5
:101AE800036823F48052026000E0FEE798ED018A63
:101AF800B5EE408A0021F1EE10FAC8F81C10C8F8BB
:101B08001810C8F81410C8F81010C8F82810C8F829
:101B18002410C8F8201029D0DFED3C7A28EE270AD7
:101B280010EE100A00F0D4FF044618EE100A0D4615
:101B380000F0CEFF0646B8F800000F4600F0B6FFEA
:101B48002BA3D3E9002301F041F902460B463046A6
:101B5800394600F05FFE02460B462046294601F052
:101B680035F901F01BFAA8F82C0001E0A8F82C10B0
:101B780098ED028AB5EE408AF1EE10FA26D0B8F850
:101B880000904FEA092000F091FF044618EE100A71
:101B98000D4600F09DFF16A3D3E9002300F0ECFFEB
:101BA800064648460F4600F081FF02460B4630467F
:101BB800394600F02FFE02460B462046294601F022
:101BC80005F901F0EBF9A8F82E0002E00020A8F8CA
:101BD8002E00B8F800204FF47A73B2FBF3F1A8F89E
:101BE8003010BDEC028BBDE8F88300BFAFF3008076
:101BF8001F85EB51B81E194084070020CDB5E8B504
:101C08003038024000300240C2A507F4000080438B
:101C18002DE9F04F9BB083461992A94A1891A9481B
:101C28001168814200D0FEE79E6AB3F80CC09F6934
:101C38009A8DD98D039603261C6A5D6A05970692CC
:101C480006FB0CF74FEA8C0206264FEA4C000B9174
:101C58000E97052106FB0CF70F92072202940495B4
:101C68000D90119701FB0CF04FEACC0602FB0CF12A
:101C780000271D695C69D3F81CA010901291179673
:101C88000197188EDDF80490814580F20A818E480C
:101C98009BF800601BF80C7010F80690C25DA14418
:101CA8008419511994F8008194F8002201EB48082E
:101CB800CDF81C80DDF834801BF80860855DC719F5
:101CC800A9180E9A97F800411BF8022097F800729D
:101CD80001EB4405815C0895CC1981190F9E91F898
:101CE800008191F8007204EB48081BF80640CDF813
:101CF80024808218055D92F8006192F80022E919A3
:101D080001EB460505EB0807DDF8408015971BF841
:101D180008700A950419C15D94F8005194F80042BE
:101D2800DDF81C808E1806EB4501119D089A1BF8FA
:101D380005508E18C719425D1696161997F8002196
:101D480006EB42029044CDF85080129C97F800723E
:101D58001BF804604519845DE41995F8007195F83D
:101D68000052801904EB47044FF01C0804EB0907E4
:101D780090F80061139708FB09AADDF81C800C9401
:101D88000AEB0209152705EB460490F8005207FBF9
:101D98000890099FDDF820900A2606FB070A0F27FE
:101DA80007FB09A04FF00308DDF8289008FB0100A5
:101DB8004FF0060A0AFB0900009015984FF0300909
:101DC80009FB00FADDF858902E2000FB09A0824696
:101DD8000598824413984FF0240909FB00AA149827
:101DE8004FF02A0909FB00AA0898DDF8249008FB9F
:101DF80000F8062000FB0988DDF81C9008EB0900B4
:101E080007FB01010A9F0C98DDF8009006FB0718F4
:101E18001C2606FB008115270B9807FB021205926A
:101E2800A9F5003868B1029E049FCDF8108006EB32
:101E38000801CE1B46434FF4807296FBF2F00290E5
:101E48008046069961B1039E08FB01F8C1F58077C9
:101E580006FB07894FF4807299FBF2F003908046E5
:101E6800199901FB08F7002F02DD0837381103E044
:101E7800083F102697FBF6F047F6BC72019E1349FF
:101E8800189FDDF85C809042A8BF1046DA8972433B
:101E98008842A8BF0146013627F81210C3440196AC
:101EA800EFE61D615C61029D059C1D629C61039DBE
:101EB800049CC3F81CA05C629D621BB0BDE8F08F57
:101EC80084070020CDB5E8B51C0000204480FFFF42
:101ED8002DE9F04FA1B0C74C1F92C74A1E91116857
:101EE800A14200D0FEE79F6A9A69998DDC8D04971C
:101EF8009F89069207910F940322052106241D6AE3
:101F08005E6A03957A4379437C431292149115943F
:101F1800072209210A24794305964FEA47084FEA20
:101F280087097A434FEAC70A7C431E695D69D3F87B
:101F38001CB01891CDF84480CDF84C901692CDF88D
:101F48005CA01D94002102911A8E0299914280F2A0
:101F58005981AA4A047812F80490A944C55D111958
:101F680012F8058091F8004191F800A2464406EB6A
:101F78004406119C0896045D5519165D95F800C134
:101F880095F8005206EB0A0808EB4C0ADDF8488081
:101F9800CDF824A010F80810DDF84C80565C141910
:101FA80006EB050A10F8085094F800C1565D94F83D
:101FB800004251180AEB4C0C361991F800A1149CF8
:101FC80091F80012CDF828C006EB4A08065DCDF856
:101FD8002C80945DDDF85480551904EB010A95F8BE
:101FE800004195F800520AEB44010C9110F80810D2
:101FF8009619545C641996F8005104EB45040D9445
:10200800169D96F80062DDF824A0DDF85C80A444F3
:10201800445DCDF86CC0155D5118AD1991F800619B
:1020280091F8001205EB460505EB0A060E9510F827
:1020380008501C961419565DDDF860A0711894F8C4
:10204800006194F8004201EB460C08990CEB01067C
:102058001A9610F80A605519915D9219091995F8A0
:10206800004192F8006195F8005201EB44012D24DB
:1020780001EB090804FB09BB10910899CDF86480AD
:102088000BEB0C09DDF8288005EB460592F8006299
:10209800242202FB019A152404FB08A9DDF824A0D8
:1020A8000C994FF01C0B0BFB0A994FF00A08DDF84E
:1020B8002CA008FB01994FF00F0B0E990BFB0A9906
:1020C8004FF00308DDF834A008FB01994FF0060B28
:1020D8000BFB0A99CDF80490DDF82CA00C994FF071
:1020E8004B0B51440BFB01F91B994FF0490A0AFBB2
:1020F800019B0699DDF868900BEB010A4FF03F0B46
:102108001C990BFB09AA4FF0450BDDF864900BFBFB
:1021180001AA4FF0370B0BFB09ABDDF824A00A9995
:1021280008FB0AF84FF00609DDF820A009FB018832
:102138000C99D0444FF00F09DDF82CA009FB018859
:102148000A21DDF8389001FB0A884FF01C0A0D9926
:102158000AFB098804FB018A109C0F994FF02D098E
:1021680009FB04A8DDF804A002FB0C820692AAF57C
:102178007A3971B1039C0599CDF8149004EB0902E2
:10218800541A0F9A4FF48071544394FBF1F403945A
:10219800A146079961B1049CC1F5807209FB01FC55
:1021A80004FB02C94FF4807199FBF1F20492914645
:1021B8001F9C04FB09F1002902DD10314C1103E0DA
:1021C8001039202291FBF2F447F6BC718C42A8BF6B
:1021D8000C46DA890299DDF874804A4308498C4232
:1021E800A8BF21461E9C24F81210029A4044511C94
:1021F800A9E600BFCDB5E8B5840700201C00002083
:102208004480FFFF05981E615D61039E069D049C46
:1022180058629D61C3F81CB01E629C62104621B0D2
:10222800BDE8F08F2DE9F04F95B0994C1392994A7B
:1022380012911168A14200D0FEE75E6A1D6A9F6A8A
:102248009A69998DB3F82E800C964FF00009D3F84F
:1022580010C05E69D3F81CB00195029709920A91E3
:10226800CDF83480CDF80C908B4904780D190C5DAD
:1022780095F8007295F8008106EB070A067ACDF802
:102288002CA08F198E5D97F8002202EB4805AC440C
:10229800057C97F80081CDF810C04A194D5D92F879
:1022A800009292F8002109EB040A0AEB480C90F816
:1022B80018A090F82090CDF814C001EB0A0494F807
:1022C800007294F80041BF1907EB420801EB0902BC
:1022D800CDF8188092F8006292F80021771907EB80
:1022E800440606EB080C90F8288011F80A70079647
:1022F80001EB0805CDF840C095F8004295F800516B
:10230800E619059F06EB4204E619119690F830602D
:1023180008948C1911F8097094F80022D219049FB6
:1023280002EB4502BD180F9590F8385011F8089047
:1023380094F80041DDF82C808E5D4F1997F800A2C3
:1023480097F800710AEB090C0CEB4404DDF818A0AF
:1023580011F805C000941C2505FB082944440A21EE
:10236800DDF8148001FB0A9906EB4706DDF820A08A
:102378000F2707FB0899032101FB0A99DDF81CA028
:102388004FF0060808FB0A99DDF810A0152101FB9B
:102398000A99CB44DDF84490CDF82CB04FF02E0AC2
:1023A8000AFB09FADDF840904FF0300B0BFB09AA45
:1023B8004FF0240B0BFB04A90F9C4FF02A0A0AFBD1
:1023C800049B099CDDF81890DDF810A0A344059C37
:1023D80008FB09A8DDF820A04FF0030909FB0488D1
:1023E800079C07FB0A890A2707FB0498DDF8009079
:1023F800DDF82CA00C9F05FB098501FB0252019911
:102408000992AAF500328C180D99DDF82880E51B91
:102418004D434FF4807195FBF1F40194019F4446BC
:102428007C43029FC8EB010507FB054595FBF1F1CD
:102438000291139C6143002902DD0831091103E070
:102448000839102791FBF7F147F6BC75134C129F1A
:102458000C92A942A8BF2946039DA142B8BF2146B4
:1024680079530C354030C02D03957FF4FDAE0998A3
:10247800019C029D9861C3F810C05E61C3F81CB04E
:102488001C625A629D62102015B0BDE8F08F00BF33
:10249800CDB5E8B5840700201C0000204480FFFF6C
:1024A8002DE9F04FA1B084461F92BE4A1E91BE4846
:1024B8001168814200D0FEE79E6A9F6905969E8951
:1024C800D98D01967000079703277E4311900198D4
:1024D8009A8D0F9112960521019E08924843B200E9
:1024E8001490019E01980199139206277E430722B2
:1024F800C700514315961797019E019F1C6A5D6A94
:10250800169109220A2156434F434FF000080494BC
:1025180006955C691D69D3F81CB018961D97CDF80F
:102528000C80188EDDF80C90814580F25A819F4905
:102538009CF80000DDF804900F181CF8096097F863
:1025480000A297F80021085CA2448C198E5D94F8CB
:10255800008294F80041454405EB4207119D099714
:102568001CF805504A194D5D92F8007292F80081E6
:102578003F18129807EB44091CF80040CDF8289042
:1025880008190C5D90F8007290F80001BF1907EB6C
:102598004809DDF84C80CDF82C901CF8089001EB28
:1025A8000902CDF8089092F8006292F80021771994
:1025B800149E1CF80690159E07EB400801EB0900D5
:1025C800CDF8308090F8005290F800012F1907EBF1
:1025D80042081CF80670029DCDF83480CA194E5D79
:1025E80092F80042A41904EB40050295DDF82C800E
:1025F800169E92F80021CF5DA844CDF86C801CF897
:10260800068011F80950DDF8609001EB080011F818
:10261800088090F8004290F8000166190A9D06EBC0
:102628004204179A0E9466191C961CF802608C19BD
:102638008E5D94F8002294F80041D519099F05EBA6
:102648004002D5191A951CF809504F194D5D97F895
:10265800000297F80071404400EB44002D2100EB84
:102668000A0401FB0ABB1090099819940BEB020AA3
:1026780006EB470424210B9F01FB00A94FF0150826
:10268800DDF828A00D9808FB07964FF01C0B0BFBF4
:102698000A69DDF830800A2606FB009A0F27DDF864
:1026A800389007FB08AB4FF0030808FB09BADDF8C0
:1026B80008B0062000FB0BA9CDF80090DDF834A087
:1026C800DDF830B04FF04B090AEB0B0009FB00FABC
:1026D8001B984FF0490B0BFB00A9079809EB000A60
:1026E800DDF868901C984FF03F0B0BFB09AA4FF0E0
:1026F800450BDDF864900BFB00AA4FF0370B0BFB82
:1027080009ABDDF828A00B9808FB0AF84FF006097A
:10271800DDF824A009FB00880D9808EB0A0907FBDF
:1027280000980C9FDDF83890029806FB07864FF05A
:102738001C0A0AFB0968152707FB008610980F9FDB
:102748004FF02D0909FB006A01FB02A2DDF800A089
:102758000792AAF57A386FB10499069ECDF81880C9
:1027680001EB0800811B79434FF4807291FBF2F76B
:102778000497B846089860B1059908FB00F8C0F5B9
:10278800807601FB06894FF4807299FBF2F7059772
:10279800B8461F9800FB08F6002E09DD10367711A1
:1027A8000AE000BF84070020CDB5E8B51C00002072
:1027B800103E202196FBF1F7039ED8891049DDF8D9
:1027C800748047F6BC729742A8BF17468F42A8BFCD
:1027D800394670431E9F721C27F81010C444039298
:1027E8009FE65C61079C049A9C61059E069C1D619E
:1027F800C3F81CB01A625C629E6221B0BDE8F08F1B
:102808004480FFFFAFF3008081F0004102E000BF89
:1028180083F0004330B54FEA41044FEA430594EA98
:10282800050F08BF90EA020F1FBF54EA000C55EAD3
:10283800020C7FEA645C7FEA655C00F0E2804FEAA4
:102848005454D4EB5555B8BF6D420CDD2C4480EA86
:10285800020281EA030382EA000083EA010180EAB6
:10286800020281EA0303362D88BF30BD11F0004F04
:102878004FEA01314FF4801C4CEA113102D040423A
:1028880061EB410113F0004F4FEA03334CEA133375
:1028980002D0524263EB430394EA050F00F0A7808D
:1028A800A4F10104D5F1200E0DDB02FA0EFC22FA88
:1028B80005F2801841F1000103FA0EF2801843FA7C
:1028C80005F359410EE0A5F120050EF1200E012A6D
:1028D80003FA0EFC28BF4CF0020C43FA05F3C018AB
:1028E80051EBE37101F0004507D54FF0000EDCF124
:1028F800000C7EEB00006EEB0101B1F5801F1BD3CD
:10290800B1F5001F0CD349085FEA30004FEA3C0CD0
:1029180004F101044FEA445212F5800F80F09A80C6
:10292800BCF1004F08BF5FEA500C50F1000041EBCA
:10293800045141EA050130BD5FEA4C0C404141EBCE
:10294800010111F4801FA4F10104E9D191F0000FF5
:1029580004BF01460020B1FA81F308BF2033A3F178
:102968000B03B3F120020CDA0C3208DD02F1140C6F
:10297800C2F10C0201FA0CF021FA02F10CE002F1AA
:102988001402D8BFC2F1200C01FA02F120FA0CFCA3
:10299800DCBF41EA0C019040E41AA2BF01EB0451EC
:1029A800294330BD6FEA04041F3C1CDA0C340EDCEA
:1029B80004F11404C4F1200220FA04F001FA02F32D
:1029C80040EA030021FA04F345EA030130BDC4F1EB
:1029D8000C04C4F1200220FA02F001FA04F340EAE0
:1029E8000300294630BD21FA04F0294630BD94F091
:1029F800000F83F4801306BF81F480110134013D78
:102A08004EE77FEA645C18BF7FEA655C29D094EAE8
:102A1800050F08BF90EA020F05D054EA000C04BF66
:102A28001946104630BD91EA030F1EBF0021002051
:102A380030BD5FEA545C05D14000494128BF41F0F0
:102A4800004130BD14F580043CBF01F5801130BD54
:102A580001F0004545F0FE4141F470014FF00000DF
:102A680030BD7FEA645C1ABF194610467FEA655C90
:102A78001CBF0B46024650EA013406BF52EA033532
:102A880091EA030F41F4002130BD00BF90F0000F20
:102A980004BF0021704730B54FF4806404F132045C
:102AA8004FF000054FF0000150E700BF90F0000F15
:102AB80004BF0021704730B54FF4806404F132043C
:102AC80010F0004548BF40424FF000013EE700BF0C
:102AD80042004FEAE2014FEA31014FEA02701FBF9C
:102AE80012F07F4393F07F4F81F06051704792F06E
:102AF800000F14BF93F07F4F704730B54FF46074E8
:102B080001F0004521F0004120E700BF50EA010232
:102B180008BF704730B54FF000050AE050EA0102DF
:102B280008BF704730B511F0004502D5404261EB4F
:102B380041014FF4806404F132045FEA915C3FF490
:102B4800DCAE4FF003025FEADC0C18BF03325FEA29
:102B5800DC0C18BF033202EBDC02C2F1200300FADE
:102B680003FC20FA02F001FA03FE40EA0E0021FA03
:102B780002F11444C1E600BF70B54FF0FF0C4CF4ED
:102B8800E06C1CEA11541DBF1CEA135594EA0C0FA3
:102B980095EA0C0F00F0DEF82C4481EA030621EADE
:102BA8004C5123EA4C5350EA013518BF52EA033519
:102BB80041F4801143F4801338D0A0FB02CE4FF0CB
:102BC8000005E1FB02E506F00042E0FB03E54FF0FB
:102BD8000006E1FB03569CF0000F18BF4EF0010EF3
:102BE800A4F1FF04B6F5007F64F5407404D25FEAEF
:102BF8004E0E6D4146EB060642EAC62141EA5551A2
:102C08004FEAC52040EA5E504FEACE2EB4F1FD0CE3
:102C180088BFBCF5E06F1ED8BEF1004F08BF5FEA61
:102C2800500E50F1000041EB045170BD06F0004613
:102C380046EA010140EA020081EA0301B4EB5C04C0
:102C4800C2BFD4EB0C0541EA045170BD41F48011B8
:102C58004FF0000E013C00F3AB8014F1360FDEBFDD
:102C6800002001F0004170BDC4F10004203C35DAB9
:102C78000C341BDC04F11404C4F1200500FA05F33C
:102C880020FA04F001FA05F240EA020001F00042DD
:102C980021F0004110EBD37021FA04F642EB060153
:102CA8005EEA430E08BF20EAD37070BDC4F10C047D
:102CB800C4F1200500FA04F320FA05F001FA04F241
:102CC80040EA020001F0004110EBD37041F100012D
:102CD8005EEA430E08BF20EAD37070BDC4F1200538
:102CE80000FA05F24EEA020E20FA04F301FA05F2A0
:102CF80043EA020321FA04F001F0004121FA04F248
:102D080020EA020000EBD3705EEA430E08BF20EA17
:102D1800D37070BD94F0000F0FD101F00046400051
:102D280041EB010111F4801F08BF013CF7D041EAD3
:102D3800060195F0000F18BF704703F000465200D7
:102D480043EB030313F4801F08BF013DF7D043EAA8
:102D58000603704794EA0C0F0CEA135518BF95EA5E
:102D68000C0F0CD050EA410618BF52EA4306D1D1E5
:102D780081EA030101F000414FF0000070BD50EA04
:102D8800410606BF1046194652EA430619D094EA8E
:102D98000C0F02D150EA013613D195EA0C0F05D178
:102DA80052EA03361CBF104619460AD181EA0301CC
:102DB80001F0004141F0FE4141F470014FF0000084
:102DC80070BD41F0FE4141F4780170BD70B54FF01F
:102DD800FF0C4CF4E06C1CEA11541DBF1CEA13559F
:102DE80094EA0C0F95EA0C0F00F0A7F8A4EB050481
:102DF80081EA030E52EA03354FEA013100F0888078
:102E08004FEA03334FF0805545EA131343EA126340
:102E18004FEA022245EA111545EA10654FEA0026F5
:102E28000EF000419D4208BF964244F1FD0404F5AE
:102E3800407402D25B084FEA3202B61A65EB03050A
:102E48005B084FEA32024FF480104FF4002CB6EBC7
:102E5800020E75EB030E22BFB61A754640EA0C0047
:102E68005B084FEA3202B6EB020E75EB030E22BF87
:102E7800B61A754640EA5C005B084FEA3202B6EBC8
:102E8800020E75EB030E22BFB61A754640EA9C0087
:102E98005B084FEA3202B6EB020E75EB030E22BF57
:102EA800B61A754640EADC0055EA060E18D04FEA15
:102EB800051545EA16754FEA06164FEAC30343EAB5
:102EC80052734FEAC2025FEA1C1CC0D111F4801F82
:102ED8000BD141EA00014FF000004FF0004CB6E77B
:102EE80011F4801F04BF01430020B4F1FD0C88BF1A
:102EF800BCF5E06F3FF6AFAEB5EB030C04BFB6EB25
:102F0800020C5FEA500C50F1000041EB045170BD17
:102F18000EF0004E4EEA113114EB5C04C2BFD4EB44
:102F28000C0541EA045170BD41F480114FF0000EC8
:102F3800013C90E645EA060E8DE60CEA135594EA44
:102F48000C0F08BF95EA0C0F3FF43BAF94EA0C0F47
:102F58000AD150EA01347FF434AF95EA0C0F7FF4BC
:102F680025AF104619462CE795EA0C0F06D152EA10
:102F780003353FF4FDAE1046194622E750EA4106F4
:102F880018BF52EA43067FF4C5AE50EA41047FF405
:102F98000DAF52EA43057FF4EBAE12E74A0011D2B7
:102FA80012F5001211D20DD56FF47873B3EB62529B
:102FB8000ED44FEAC12343F0004343EA505323FAA7
:102FC80002F070474FF00000704750EA013002D11C
:102FD8004FF0FF3070474FF000007047F0B5354DA7
:102FE800354C6B88354A364E238083B0354B62604A
:102FF80020460127A360E781A781FEF751FD688875
:10300800314DFDF74FFF336B43F4805333632D206D
:10301800FDF7E4FB2D48FDF733FC2D48FDF730FCA8
:103028002A48FDF72DFC80234FF4FA51294A0093D2
:103038000320294BFDF792FF2848FDF721FC284A79
:10304800938B9BB243F480639383336B43F0040305
:1030580033632B6823F440532B60EB6843F48053AD
:10306800EB600A20FDF790FA2B691E485B0610D426
:10307800FDF706FC39461C48FDF702FC1B48FDF726
:10308800FFFBFDF757FB3846FEF7A4FB2046FDF78C
:10309800DFF8FDF7F5FB00211348FDF7F1FB1348B6
:1030A800FDF7EEFBFDF746FB0020FEF793FBFDF76F
:1030B8002DF900BF04000020280900200000FA456F
:1030C800003802400000A0410008024028340008EF
:1030D80060340008A80700205C090020903400082C
:1030E80000380040A8340008E83400080C3500080F
:1030F800002103E00B4B5B58435004310A480B4B4B
:1031080042189A42F6D30A4A02E0002342F8043BE6
:10311800084B9A42F9D3FDF76BF900F01FF8FFF757
:103128005DFF7047DC350008000000204C070020D8
:1031380050070020680A0020FEE7000008B50021BB
:10314800044600F08BF8044B1868C36B03B198472A
:10315800204600F035FA00BFA835000870B50F4EBC
:103168000F4D761BB61018BF002405D0013455F852
:10317800043B9847A642F9D10A4E0B4D761B00F046
:1031880013FAB61018BF002406D0013455F8043BD2
:103198009847A642F9D170BD70BD00BFD035000870
:1031A800D0350008D8350008D035000870B4840739
:1031B80046D0541E002A41D0CDB2034602E0621E1A
:1031C800E4B3144603F8015B9A07F8D1032C2ED90F
:1031D800CDB245EA05250F2C45EA054519D903F175
:1031E80010022646103E0F2E42F8105C42F80C5C86
:1031F80042F8085C42F8045C02F11002F2D8A4F12B
:10320800100222F00F0204F00F041032032C1344B2
:103218000DD91E462246043A032A46F8045BFAD81A
:10322800221F22F003020432134404F003042CB1D9
:10323800C9B21C4403F8011BA342FBD170BC704700
:1032480014460346C2E700BF024B13B1024800F020
:103258006FB8704700000000453300082DE9F04FB3
:10326800314B83B01B68009303F5A47381460E4667
:103278000193009BD3F8487127B3DDF804A07C685C
:10328800651E0ED4013407EB84044FF00008E6B144
:10329800D4F80031B34218D0013D6B1CA4F10404EA
:1032A800F5D1224B73B17B68002B36D13B68002BDC
:1032B80034D03846CAF80030AFF30080DAF800702E
:1032C800002FDCD103B0BDE8F08F7B682268013B9A
:1032D800AB420CBF7D60C4F80080002ADCD0D7F870
:1032E8008831D7F804B00121A940194208D1904784
:1032F8007B685B45BDD1DAF80030BB42CCD0B8E77B
:10330800D7F88C31194204D14846D4F88010904738
:10331800EEE7D4F880009047EAE73B68BA461F46D4
:10332800002FACD1CEE700BFA83500080000000090
:10333800014600200246034600F016B838B5084B8F
:10334800084DED1AAC1018BFED1805D0013C55F822
:10335800043D9847002CF9D1BDE8384000F02AB95F
:10336800D8350008DC3500082DE9F047254C2568DC
:10337800D5F848410646884692469946CCB36068D7
:103388001F2818DC431C7EB104EB80050121C5F819
:1033980088A0D4F8887101FA00F21743022EC4F805
:1033A8008871C5F808911ED00230636044F8208007
:1033B8000020BDE8F087144B03B34FF4C870AFF397
:1033C80000800446D0B1D5F84831002780E888004D
:1033D800C5F8484138460123C4F88871C4F88C718F
:1033E800002EE1D0D0E7D4F88C110A43C4F88C2120
:1033F800DAE705F5A674C5F84841C0E74FF0FF3095
:10340800BDE8F087A835000800000000FEE700BF0F
:1034180053445230300000004D4452303100000017
:103428000A77777777777777777777777777777791
:103438007777777777777777777777777777777714
:103448007777777777777777777777777777777704
:10345800777777770A000000772053544D33324648
:10346800343037202D20435334334C3232204175C9
:1034780064696F20444143204D4943204932532019
:1034880064656D6F000000002D3E205359533A20AB
:10349800696E697420636F6D706C657465640A0089
:1034A8000A0A77777777777777777777777777777E
:1034B8007777777777777777777777777777777794
:1034C8007777777777777777777777777777777784
:1034D80077777777777777777777777777770A0058
:1034E80077206E524632344C30312054782D527841
:1034F8002064656D6F202D20545950455B25645D0F
:10350800200000000A77777777777777777777776C
:103518007777777777777777777777777777777733
:103528007777777777777777777777777777777723
:103538007777777777777777777777777777777713
:10354800770A00002D3E2050310A00002D3E205001
:10355800320A00002D3E20435334334C32323A2095
:103568004944205B2578625D0A00000053504933C6
:103578002D3E49325350523A2025780A0000000067
:103588005245475B2578625D3A202578620A00003B
:1035980054494D454F55540A0000000043000000AF
:1035A8002003002000000000F8B500BFF8BC08BCEC
:1035B8009E467047F8B500BFF8BC08BC9E467047E9
:0835C8001CCCFF7F0100000094
:0835D00051320008AD010008B2
:0435D800890100085D
:1035DC00000000001400803E00000000000000000D
:1035EC000102030406070809007A030A000001011E
:1035FC00030304040606070709090A0A0A0A0B0B47
:10360C000D0D0E0E10101111131314140F0F1010AA
:10361C0012121313151516161818191919191A1A36
:10362C001C1C1D1D1F1F20202222232315151616BE
:10363C00181819191B1B1C1C1E1E1F1F1F1F2020B6
:10364C00222223232525262628282929242425251A
:10365C00272728282A2A2B2B2D2D2E2E2E2E2F2FA6
:10366C003131323234343535373738381C1C1D1D66
:10367C001F1F202022222323252526262626272706
:10368C0029292A2A2C2C2D2D2F2F30302B2B2C2C6A
:10369C002E2E2F2F313132323434353535353636F6
:1036AC00383839393B3B3C3C3E3E3F3F313132327E
:1036BC0034343535373738383A3A3B3B3B3B3C3C76
:1036CC003E3E3F3F414142424444454540404141DA
:1036DC00434344444646474749494A4A4A4A4B4B66
:1036EC004D4D4E4E505051515353545400121527BA
:1036FC0017292C3E182A2D3F2F414456182A2D3FAE
:10370C002F4144563042455747595C6E17292C3E81
:10371C002E4043552F41445646585B6D2F4144561D
:10372C0046585B6D47595C6E5E70738515272A3C55
:10373C002C3E41532D3F42544456596B2D3F42541D
:10374C004456596B45575A6C5C6E71832C3E4153F1
:10375C004355586A4456596B5B6D70824456596B8D
:10376C005B6D70825C6E71837385889A1224273925
:10377C00293B3E502A3C3F51415356682A3C3F510D
:10378C004153566842545769596B6E80293B3E50E1
:10379C004052556741535668586A6D7F415356687D
:1037AC00586A6D7F596B6E807082859727393C4EB5
:1037BC003E5053653F51546656686B7D3F5154667D
:1037CC0056686B7D57696C7E6E8083953E50536551
:1037DC0055676A7C56686B7D6D7F829456686B7DED
:1037EC006D7F82946E80839585979AAC001C153101
:1037FC000F2B24400A261F3B19352E4A06221B3755
:10380C0015312A46102C25411F3B3450031F183408
:10381C00122E27430D29223E1C38314D09251E3A04
:10382C0018342D49132F2844223E3753011D1632CC
:10383C00102C25410B27203C1A362F4B07231C3804
:10384C0016322B47112D2642203C355104201935B8
:10385C00132F28440E2A233F1D39324E0A261F3BB4
:10386C0019352E4A14302945233F3854001C153184
:10387C000F2B24400A261F3B19352E4A06221B37D4
:10388C0015312A46102C25411F3B3450031F183488
:10389C00122E27430D29223E1C38314D09251E3A84
:1038AC0018342D49132F2844223E3753011D16324C
:1038BC00102C25410B27203C1A362F4B07231C3884
:1038CC0016322B47112D2642203C35510420193538
:1038DC00132F28440E2A233F1D39324E0A261F3B34
:1038EC0019352E4A14302945233F38540000000066
:1038FC00000000000C06002074060020DC060020EE
:10390C0000000000000000000000000000000000AB
:10391C00000000000000000000000000000000009B
:10392C0000000000A43500080000000000000000AA
:10393C00000000000000000000000000000000007B
:10394C00000000000000000000000000000000006B
:10395C00000000000000000000000000000000005B
:10396C00000000000000000000000000000000004B
:10397C00000000000000000000000000000000003B
:10398C00000000000000000000000000000000002B
:10399C00000000000000000001000000000000001A
:1039AC000E33CDAB34126DE6ECDE05000B000000DF
:1039BC0000000000000000000000000000000000FB
:1039CC0000000000000000000000000000000000EB
:1039DC0000000000000000000000000000000000DB
:1039EC0000000000000000000000000000000000CB
:0C3D1C0000000000000000002003002058
:043D28000000000097
:04000005080030F9C6
:00000001FF
